:400000000010002011000000B5030000B503000008B500F081FA00F0CFF90000F7B572B680220021D200554800F0EDFF802200215348D20000F0E7FF0023191C514C1859E1
:400040001034C2B20192071CFF2297434A00A4180022019ED5B2AE4209D05500665D6519B446BC446D78664635700132F1E7C0B204330918102BE1D1434BC02292041A60F8
:40008000424B99221A60424A00231360414A80211160414AC9031160404A40211160404AC021490311603F4A312113603E4B02221A603E4B802019603D4B3E491A60992317
:4000C0001B040B603C49000608603C493C200B603B4B8021890519603A493B4B19603B4B19780A431A703A4A117881431420014311701A7816210A431A70364A8023116893
:40010000DB020B431360344B141C1878334BC0B21978334BC9B21A78172A05D9314A58789978033B9342F6D12F4B192218602F4B052019602E4B1A6000F05EFD2D4B052061
:400140001A782D4BD2B21A6000F09EFE22682B4B134023602A4A2B4B1A602B4B10221A602A4B20221A602A4B802212061A60294A294B1A60294A2A4B1A60F7BD00300F40BF
:4001800000400F402410000004000140100001400C000140000004400800044000010440080104400803044000040440080404401804044000500F4004500F4010500F403F
:4001C00018500F40100001002001054000700F4001700F4000010B40CCF1FF0FCDF1FF0FC9F1FF0FBDF1FF0F1CFF0B4020FF0B402CFF0B40E5F1FF0F28FF0B40FFFFFBFF57
:400200000600008004010B40080202402002024008010B401000008000000240AF0400804000024010B5064C2378002B07D1054B002B02D0044800E000BF0123237010BDEC
:40024000F0000020000000002010000008B5084B002B03D00748084900E000BF07480368002B03D0064B002B00D0984708BDC0460000000020100000F4000020D00000200F
:400280000000000010B562B600F0ACFC00280ED16524012000F0E2FD00F0A4FC002806D1013CE4B2002CF4D1034B40221A6000F08BFC00F0DBFAFEE7C000002008B500F01E
:4002C00015FB00F04DFB00F0B5FB08BD70B5054B0D1C161C0024C9B21C8000F09FFB3580201C70BD0C010020F0B50A275F4387B003900591151C00262D4CBE4219DA00F0E6
:400300001DFB80B220802388002B0CD00220268800F0A4FD00F012FB80B220802388B6B2B342F3D807E00120013600F097FDB6B2E2E7052600E0002600272F802388002B4D
:4003400033D023889BB2019301992B885A18059992B22A808A4221D2019ABB189BB2029302998F4209D07B1C9BB20493039BDF1900F0CAFA3870049FF2E772B62388019AF8
:400380009B1A9BB2238062B6039A5318013B1B78172B08D0052000F061FD04E02B8000F0DFFA052601E0029FC8E7301C07B0F0BD0C010020FEE7000070B51048104B013895
:4003C000421C15D01E685C689D680022A118AA4203D0B158A1500432F8E7DA680D1C4C1B944202D0002410C1F9E710330138E7E700F0DAFDFFF746FFFEE7C046010000003B
:400400007410000008B500239A00032B02D80D49895800E00C490D4801338150302BF3D1FFF7FCFD0A4B00221A600A4B1A68002A00D11A608023DB051A6801210A431A60B7
:4004400008BDC04600000000B503000000000020C8000020C0000020004770B5051C0E1C141C002802D0002000F0EAFC0020002C05D0013CAA19125D8318D8B2F7E770BD7A
:40048000013808B509282AD8C901494200F078FD0507090B0D0F1614181B154B08E0154B12E0154B0DE0154B0EE0154B00E0154BC9180878C0B21AE0134B02E0134B00E0A0
:4004C000134BC9180FE0134BC9180B7848788A780002120410431843CB781B0606E0002000F0AEFC00210B7848780002184308BDC07F0000C17F0000C57F0000C97F0000EF
:40050000D07F0000D17F0000D67F0000D27F0000D47F0000D87F00000C4B10B51A6810231A400B4B00D11A601A68802A0DD100240220211C1C60FFF7A3FFA04205D0211C6B
:400540000220FFF79DFFFFF787FF10BD00030B40C0000020F8B5051C291C0320FFF790FF291C041C0420FFF78BFF671CFF013F18291C0320FFF784FF00240130C001261C79
:40058000B84209D203785A1ED2B2FD2A00D801261C19E4B20130F3E70120291CFFF770FF6442E4B20623844203D17242564176423340181CF8BD0000F0B5A44CA544FFF756
:4005C0007DFE62B600260096002506AC03AE9621201C4900321CFF23FFF786FE0028F4D13188062900D88AE022780423012A54D1E778A2783F021743E2195679B44616796F
:400600000196FE1D8E427FD89279172A45D1FB189BB2002B08D09CA98D4ECA1892191278013B801880B2F3E7019B614640420A0280B21A43082382422FD167E0342B00D040
:400640009DE0009901295AD1032F58D151A80021802200F0D8FC802551A948192639ED19FA1EFF39ADB200F0C5FC832D49D1A079637900021843774B36021B6880191A68BB
:4006800080B2D3099BB2560601D001339BB298427BD20127009700250A2300210120207068466A46437681766B4600200E32D8760B1D11809BB29CAFFE18654F013BF61954
:4006C00036789BB2801980B2002BF4D19CAE624F7318DE194042614F80B23070DE19000A30705F4807311B181720187089B2201C9623FFF7EBFD68E7009E012E1BD0042315
:40070000CBE70126009600250323C6E763782679181C31380A2801D90523BEE700F03AFCECFF1400FCFF8EFF3F00FCFF430054008EFF63008B00002FE1D1381CFFF70AFF35
:4007400043424341237173E000980128D7D1012FD5D1002ED3D13F4B1B681B68DA0BD2B2DB09DBB2002A01D080235B0023711B0A6371FF23A3710023E37104218EE7009BA6
:40078000012BBCD1022FBAD966E751A900F048FA002800D07DE701260096051C12E0009F012FACD110E7009E012EA8D19623EE195B009E42A8D851A948193A1C07A900F0C2
:4007C00019FCB5B2002368E7002F98D104AB254A191C41CA41C107AA41CB41C2012600963B1C08215AE70098012888D1032F86D1A37962791B021A43310251180192C901C8
:4008000000208022FFF729FE071C002E0ED10199FF290BD1311C0520FFF732FE311C3F1A0620FFF72DFEFFB23F1AFFB27F4227710023012132E70020FFF78CFE002802D179
:40084000094B80221A6000F0FDFA58E78CFDFFFFA7FDFFFFD4000020ACFDFFFFADFDFFFFAEFDFFFF48100000C000002038B50020FFF770FE0025A84200D00625124C00209C
:400880002368C0211A68C03AFFF7E7FD62681378181AC0B2984203D123681B68002B02D1002000F0CDFA094B19681A1C402901D0002D03D000231360FFF77EFE80221A6083
:4008C00000F0C0FA38BDC046D4000020C000002008B5054B8022196812060A431A600A2000F09AFA08BDC0460000064010B5054C2378002B03D100F0BFF801232370FFF7AD
:40090000E7FF10BD10010020094B0A4A1968136899420BD011684B1C4039481E814149420B400549C85C1360C0B200E000207047B0010020280100206C010020064B074ACB
:400940001B6811688B4202D31068181A02E012684133981A7047C046B0010020280100200C4A0D4B002130B5106811601D68802464022C431C601D68084C2C401C60084BAB
:400980001C68084B1C60084B19700849084B1960106030BDC80F064004030640FFFFFEFF28010020B0010020AD010020ED0F0000C00F0640124910B50A68531C3F3A541E44
:4009C000A241524213400F4A1468A342FBD00C681268944208D10C4A14680F222240082A02D00A4B18600AE0094C02222260094CC0B2E0540B60084B19680A431A6010BD22
:400A000024010020200100200802064040020640800F06402C010020880F064038B5041C4518AC4204D02078FFF7C4FF0134F8E738BD00000B4A0023116810B513600A4B55
:400A400080201C684002204318601C68074820401860074B1868074B186002239943116010BDC046880F064004020640FFFFFEFF20010020240100201D4A1E4B10B51A60F0
:400A80001D4B00241C601D4B01221A601C491D4B07200B601C4908601C490A200C601C490A601C4A13601C4B1C6000F0BFF90A20032100F091F919490A2000F081F9184BAE
:400AC00004221C60174B1C60174B1C60174B1C60174B1A60174B1C60174B1C60174B1C60174B1C70174B1C60174B1C6010BDC0460B00000200000640400006404800064060
:400B0000000306400700008004030640100306404400064000020640040206409D0E0000880E0640C80E0640480F0640080F0640C80F0640880F0640B00100202801002070
:400B4000AD01002024010020200100200E4B8422D2041A601968802252020A431A600B490B4A0A60196819600A4BC32189001960094B00211960094B1C211960084B1A6087
:400B8000084A094B1A60704700010540080105401027000024010540380105402801054014010540881300000C01054008B500F02DF8044B01211A680A431A6000F02AF858
:400BC00008BDC0460000054010B5054C2378002B03D1FFF7BBFF01232370FFF7E7FF10BD18010020024B18680006C00F7047C04604000440000000000230800804D0C046B1
:400C00000138FDD1C046C046C0467047EFF3108072B6704780F310887047C046C046C046F0B50024CBB0069404900794FF2800D9A4E0A14200D1A1E008AD8022281C00F06E
:400C4000D9F9231C211C221C029498002858002802D01218014302930133202BF5D1002A05D1002900D08EE00191039102E0002001900390484F7F2328AE291C80222AA87D
:400C80002897464C736000F0B5F9454A454B266013602168090F0A2903D022680F23134000E000230693069F002F69D1FFF7AEFF3D4A3E4B116807971960069B0590002B56
:400CC00014D13B4A04982892289A01040A43289228AA22603249374A0A602268120F0A2A03D02E4B1A680F2313400693069F002F38D1019A002A35D0391C8022281C00F00F
:400D000082F90298039A08A983005A50224B2AA8289380227F23736000F06CF9214820492660086023681B0F0A2B03D01B4B1F680F231F400697069B002B13D11E4A049871
:400D40002892289A01040A43289215491B4A26600A602268120F0A2A03D0104B1A680F2313400693079B002B04D1104A0E481268026007930598FFF74DFF01E00423069343
:400D800006984BB0F0BD02998B00E85801210390EA5001916EE7C046B6D7000008000040040000400400008008010B401C010020B6D8000005000080B6D900000600008055
:400DC0001F2800D901BE034A80008318186819607047C0464000002038B5041C0D1E032D00D901BE1F2C00D901BEFFF70FFFA308084A9B009B18032214409440196806345C
:400E0000A2409143A5400C1C2C431C60FFF702FF38BDC04600E400E01F23184001238340181C014B1860704700E100E01F23184001238340181C014B1860704780E100E0EC
:400E400001BE7047034B04491A6892B20A431A607047C0460CED00E00400FA0510B5041C8022074B1202944205D91868FFF7C4FE044BE418F4E758686043FFF7BDFE10BD5B
:400E8000DC0000200080FFFF08B5034B1B7A5843FFF7B2FE08BDC046DC000020274B10B51B68002B00D09847254B1B685A071DD5244B1B681A0716D0234B244A1868116868
:400EC0004B1C40394C1EA14149420B40204909688B4203D11F4B20221A70E9E71E49C0B2C8541360E4E71D4B04221A601C4B1B689A0721D51B4B1A680F231340082B18D02B
:400F0000194B1A4A1968136899420DD011684B1C3F39481E814149420B401549C85C1549C0B208601360E5E7134B02211A688A431A60124B02221A6010BDC0461401002099
:400F4000CC0F06400803064040030640B001002028010020AD0100206C010020C00F06408C0F06400802064024010020200100202C01002040020640880F0640800F0640AE
:400F800002B4714649084900095C49008E4402BC7047C04603B47146490840004900095E49008E4403BC704770B50E4B0E4D0024ED1AAD101E1CAC4204D0A300F358984765
:400FC0000134F8E700F044F8084B094D0024ED1AAD101E1CAC4204D0A300F35898470134F8E770BD5C1000005C1000005C1000006410000010B50023934203D0CC5CC4548E
:401000000133F9E710BD031C8218934202D019700133FAE770470000A8100000EE0000000000000001330F4003410F4004430F4002600F40E61062048E04D84018808C40AD
:40104000C608E608020111019311C804111E0101F8B5C046F8BC08BC9E4670474D02000005040000F8B5C046F8BC08BC9E4670472502000088100000D0000020200000004B
:40108000C80000000000000000000000181000001C1000000000E02EC05D00001800000000366E01000000000000000000000000000000000000000000000000000000002C
:4010C00000000000000000000000000000000000000000000000000000000000000000000000000000000000000000000000000000000000000000000000000000000000F0
:4011000000100020111100000D1C00000D1C000010B5024B83F3088800F080FD0010002070B5194C23688022D20213432360182000F00CFE2268154B13402360144A154B42
:401140001A601022144B1A602032144B1A60103A134B1A6080221206124B1A6000252560114A124B1A60124A124B1A60124A134B1A601349092000F0B5FD092000F0A6FDE6
:40118000104B1D6070BDC04600010B40FFFFFBFF0600008004010B4008020240200202403002024008010B4010000080000002401900008040000240BF5D00808000024047
:4011C0005D1F00000C020B4070B572B601223D4B1A7000240FE03C486200131959000B00411889881A5AC31858880004104300F003FD0134E4B2022CEDD9002411E0324EDB
:40120000A2001319590071188D8AC88A000428430A8B498B09041143802200F0F3FC0134E4B2002CEBD0284920312848583000F0C9FC80225200264B1A800123254A1370A5
:401240002549264A11609921254A1160002225490A6025490A602549254A116080210904244A1160F4218903234A116099210904224A1160224A13600221224B1960224863
:4012800003783C22934314221343DBB203701F4A107816230343DBB2137087221C4B1A601C4A1D4B1A60C02252031C4B1A601C4B196031221B4B1A601B4B1960FFF730FF72
:4012C00070BDC0461C700F40882700008829000000600F4002600F403303000000000140100001400C000140080304400400990000500F4004500F4008500F4010500F4087
:401300002000004000800F4001700F4000700F4000000440B6034000080004400801044000040440080404401804044010B5064C2378002B07D1054B002B02D0044800E003
:4013400000BF0123237010BD500100200000000074240000084B10B5002B03D00749084800E000BF07480368002B00D110BD064B002BFBD09847F9E70000000054010020CE
:4013800074240000C80000200000000010B562B6012000F0E5FA0F4C0121200000F0F2FA0121200000F0E8FAC82000F07BFF00F03BFE094800F0A8FE012000F07BFCFA204F
:4013C000800000F0A1FC002000F074FC00F018FAFCE7C046B51C0000D024000010B5040000F0ECFA3D4B1B781B2B6AD96FE03C4B1A880A2A6ED893003A4AD3589F46200034
:4014000000F02AFB384B1880384800F07DFE58E0200000F021FB344B5880354800F074FE4FE0200000F018FB2F4B9880314800F06BFE46E0200000F00FFB2B4BD8802E48BD
:4014400000F062FE3DE0200000F006FB264B18812A4800F059FE34E0200000F0FDFA224B5881274800F050FE2BE0200000F0F4FA1D4B9881234800F047FE22E0200000F0E1
:40148000EBFA194BD881204800F03EFE19E0200000F0E2FA144B18821C4800F035FE10E0200000F0D9FA104B5882194800F02CFE07E0200000F0D0FA0B4B9882154800F090
:4014C00023FE064B1B78002B91D1042004E00120404201E00120404210BDC0465402002056020020782400002C020020E824000004250000202500003C2500005825000028
:401500007425000090250000AC250000C8250000E42500000026000010B50400032100F04DFA3E4B1B781D2B6AD971E03C4B1A880A2A70D893003B4AD3589F463A4B198861
:40154000200000F06FFA394800F0DEFD58E0364B5988200000F066FA354800F0D5FD4FE0314B9988200000F05DFA324800F0CCFD46E02D4BD988200000F054FA2E4800F034
:40158000C3FD3DE0284B1989200000F04BFA2B4800F0BAFD34E0244B5989200000F042FA274800F0B1FD2BE01F4B9989200000F039FA244800F0A8FD22E01B4BD989200047
:4015C00000F030FA204800F09FFD19E0164B198A200000F027FA1D4800F096FD10E0124B598A200000F01EFA194800F08DFD07E00D4B998A200000F015FA164800F084FD44
:40160000064B1B78002B91D1134B0020185604E00120404201E00120404210BD5402002056020020A42400002C0200201C260000342600004C260000642600007C26000037
:4016400094260000AC260000C4260000DC260000F42600000C2700005802002010B50B00062808D002D803280AD011E0102802D0112809D00CE001001800FFF7AFFE09E0D8
:401680000800FFF749FF05E0080000F083F901E00120404210BDC0464840002309E0C20704D540080449484080B200E040080133DBB2072BF3D9704701A0FFFF70B502004B
:4016C000064805E0551C1178FFF7E6FF21002A004B1EDCB20029F5D170BDC046FFFF000000290CD1062816D903000F3BDBB2012B13D9162813D0172813D10E3814E00538B0
:40170000C3B2112B05D89800084B1B589F4604200AE0012008E0042006E0052004E0062002E0002000E006207047C04628270000437800290AD10F2B10D3102B02D9172B40
:4017400002D00BE080790CE0807A0AE0042B03D9112B01D0172B03D1807802E0002000E000200230C0B270470278120243781A43100070470B0A0370417002207047C046DB
:40178000F8B51C4B1B68002B02D01A4A1079984718494D7A0A312800FFF760FF002807DA80235B421D43EDB20122124B9A720120C4B2A11CC9B24FB20E4E75723500083590
:4017C0002800FFF77BFFE31C5BB2F7193872211DC9B2F318000A1872280000F0BFF93368002B05D0034A107942425041C0B29847F8BDC0466C01002010B500F05FF910BD6A
:4018000070B54823544AD35C002B00D081E000F097F9002800D19DE04F4C4926A55D6B1CA35500F07FF9651928724C4A1378013B1370A35D012B13D100F046F9464B1A7AAA
:401840004A215B5C9A4203D100214B23424AD154414BDB6C002B03D050223F49885C98473E4B1B78002B27D151333B4AD35C002B02D0012B0FD01FE0374B4B22995C587A94
:40188000FFF72EFF354B1870002804D001215123314AD15410E0304C4B23E15C20000830FFF746FF2D4B18704923E35C181840282FDC02215123E154284B1B78002B41D1C4
:4018C00025484933C45C08302100FFF7F7FE00281FD1A01EC0B24B231F4AD35C012B18D01300127A4A215B5C9A420FD052231A4AD35C002B05D021001000083000F0A8FCB8
:4019000007E001214B23144AD15408E040B2FFF737FF00F0C3F800214B230F4AD1540E4B002249215A5402200C49087051215A54DB6C002B06D050320749885C424250413A
:40194000C0B2984700F0FCF8002800D064E74923014AD05C70BDC0466C010020CC00002010B54A23034AD05400F0B2F800F0D0F810BDC0466C010020014B18601971704706
:401980006C010020024BD864502299547047C0466C01002010B5192303703133054AD35C4370FF23837003301722034900F050FD1A2010BD6C0100207027000070B5040001
:4019C0000D00FFF7D1FE134B1880A01CFFF7CCFEC0B2114B1870062D0ED0102D14D0032D16D1012153230D4AD1544000C0B2421C0B4B1A7020700BE002215323074AD15476
:401A00000122054B1A7003E005215323034AD15470BDC04656020020540200206C0100205802002070B5094D53242B5DC018FFF7A1FE2B5DC0182855054A1378013B137033
:401A4000044A13880133138070BDC0466C010020540200205602002070B5084E5325745D0019FFF781FE064A1378013B1370054A1388013313800234745570BD6C010020B2
:401A8000540200205602002010B50122024B1A70012000F04BFC10BDB401002010B50821012000F007FC022000F02EF900F0E4FB0022014B1A7010BDB401002010B50821ED
:401AC000012000F0F7FB10BD10B500F001FC10BD10B500F015FC024800F054FC10BDC046891A000010B50CE0084800F067F800280BD100F091FB0100044800F033F8FFF7A3
:401B00007BFE00F08FFB0028EED110BDC001002010B500F071FB024800F024FB10BDC046E51A000010B500F017FB044800F02EF8040000F00BFB200010BDC046C0010020DA
:401B400010B500F009FB044800F034F8040000F0FDFA200010BDC046C001002010B500F077FB10BD30B54022845C651C01553F232B4083540232835C0133DBB28354402BD9
:401B800002D1413A0333C25430BDC04610B503004121405C421CD2B25A54185C3F2422405A5401315A5C013A5A5400214322995410BDC0464223C05C7047C0464323C05C84
:401BC0007047C046F0B50025002711E0BB00C658F3B2FF22964308E06A008A181478A419527822700135013BDBB2002BF4D10137072FEBD9F0BDC04610B50A00002100F081
:401C000030FC10BD10B500F023FC10BD10B500F0F3FB03680C2B00D1FEE7FEE770B50F4E0F4D13E029686B68AC68002202E001C901C30432A242FAD1E868002202E00021F5
:401C400002C304328242FAD11035013E002EE9D100F0D8FBFFF79AFBFEE7C04601000000D42A000010B500230AE0032B03D89A000C49505800E00C4899000C4A8850013395
:401C80002F2BF2D9FFF7A0FA094B1B68002B02D10022074B1A608022D205116801230B43136010BD001100000D1C000000000020C000002004490A68D2B240239A438001CA
:401CC0001840104308607047000104401F2318401E3B8340014A13607047C04600E100E001BE704770B504000D001F2802D90020FFF7F6FF1034A40080239B059C46644455
:401D00002068256070BDC04610B5040006E0084B586800F051FB074B9C46644480231B029C42F4D8024B9868604300F045FB10BDD00000200080FFFF10B5034B1B7B584380
:401D400000F03AFB10BDC046D0000020F0B557464E46C0B483B0040000F038FB0190E71E2D2F74D83F4B1B78DBB29C4208D83E4B1B78DBB29A463D4B1B78DBB2994631E010
:401D80003B4B1B78DBB29C4208D83A4B1B78DBB29A46394B1B78DBB2994623E0374B1B78DBB29C4208D8364B1B78DBB29A46354B1B78DBB2994615E0334B1B78DBB29C42E3
:401DC00008D8324B1B78DBB29A46314B1B78DBB2994607E02F4B1B78DBB29A462E4B1B78DBB299462D4BDE5D2F2E09D92A2C07D919222B4B1A60052000F0DEFA192503E0D1
:401E0000274B1D683F231D40B54206D9234BDA5D234B1A60052000F0CFFA1F4B9C4664442378DBB21F4A13601F4B52461A601F4B4A461A600520FFF77FFFB5420AD2174BF5
:401E4000DA5D174B1A60052000F0B6FA02E00020FFF746FF019800F0BDFA03B00CBC91469A46F0BDC0F1FF0FC1F1FF0FC2F1FF0FC3F1FF0FC4F1FF0FC5F1FF0FC6F1FF0FE0
:401E8000C7F1FF0FC8F1FF0FC9F1FF0FCAF1FF0FCBF1FF0FCCF1FF0FCDF1FF0F802A00002CFF0B4028FF0B401CFF0B4020FF0B40034B1868C0231B02184000D00120704773
:401EC00000010B4010B500F081FA044A1368C02109020B43136000F07DFA10BD00010B4010B500F073FA08490A68084B1A408024E40122430A600A681340802212021343B5
:401F00000B6000F067FA10BD00010B40FF3FFFFF70B5050000F05AFA0400FFF7C9FF002803D0FFF7DDFF012100E0002108482840084A1568084B2B401843106013680129BB
:401F400001D1FFF7BFFF200000F044FA70BDC0460404040010020B40FBFBFBFF10B5244B1B685B0715D5234B1B685B070ED5224BD969042001401F4C22688A432260DA692D
:401F80008243DA611B69002B00D098470420FFF7BFFF174B1B685B0518D5164B1B685B0510D5154BD9698022D2001140114802688A430260D969114A0A40DA615B69002B26
:401FC00000D098478020C000FFF7A2FF084B1B685B030CD5074B1B685B0304D5064B9B69002B00D098478020C002FFF791FF10BD10020B40E400002004020020FFFBFFFFB7
:4020000010B500F06FF810BD10B500F01DF810BD10B5044A1368802109060B431360FFF7EFFF10BD0000064010B5064B1B78002B04D1FFF7E9FF0122024B1A70FFF7E8FFCC
:4020400010BDC04624020020134A144B1A600023134A13601349144A1160144A14490A6007201449086014490B6006381349086013490A60134A1360134A1360134A1360E2
:40208000134A1360134A1360134A1360134A13601268134B1A8070470B000002000006404000064001000A0048000640070000800003064004030640100306404400064045
:4020C0000002064004020640880E0640C80E0640480F0640080F0640C80F0640880F06402602002005490B68F0229343603A13430B60034B1A88034B1A6070471000014054
:4021000026020020880F064070B50500002402E000F064F90134285D0028F9D170BDC046014B18647047C0460000002010B5040000F04CF9044A1368C0218B43A4011C43FF
:40214000146000F047F910BD00E400E00122014B1A60704700E100E00122014B1A60704780E100E010B50400FFF7F6FF2000FFF7D7FF0320FFF7DAFFFFF7E8FF10BDC046A6
:402180007222074B1A70523A064B1A701A3A064B1A704132054B1A700022054B1A70704782000F4083000F4020000F4030000F4081000F4010B500F009F904000B4A11781F
:4021C00020230B43DBB2137009490A7810231A43D2B20A70074A11780B43DBB2137000F0DFF8200000F0F6F810BDC04692000F4093000F4091000F4010B5064B1B78002B95
:4022000004D1FFF7BDFF0122024B1A70FFF7D2FF10BDC04628020020014B1878C0B2704742000F40034B1B789B0601D5012000E00020704763000F40034B1B785B07FBD4AF
:40224000024B18707047C04661000F4041000F4070B506000D00074B1B78002B06D108E0305DFFF7E9FF0134E4B200E00024AC42F6D370BD2802002010B500F0A7F8044A7B
:40228000136801218B43136000F0A4F810BDC046000005400004000C014B18607047C046080105400004000C014B18607047C0461401054070B504000D0000F087F8AC4041
:4022C000024B1C6000F086F870BDC0460800054010B500F07BF8064A116801230B43136000F078F818210120FFF7E4FF10BDC04600000540014B18607047C04638010540A7
:4023000010B581229204074B1A600C22064B1A600120FFF7EFFFFF20FFF7C4FF0020FFF7B9FF10BD0001054024010540014B18607047C046300105408023014AD0507047F6
:402340000000002010B5040000F040F8044A1368C0218B43A4011C43146000F03BF810BD10E400E080225202014B1A607047C04600E100E080225202014B1A607047C046E5
:4023800080E100E010B50400FFF7F4FF2000FFF7D3FF0320FFF7D6FFFFF7E4FF10BDC046034A1368802109060B4313607047C04640000240000000000230800804D0C0469C
:4023C0000138FDD1C046C046C0467047EFF3108072B6704780F310887047C046044B1B680F221340082BF9D0024B18607047C0460802064040020640014B18687047C046BF
:40240000480100200E4B70B500251E000D4CE41AA410A54204D0AB00F35898470135F8E700F046FB084B00251E00084CE41AA410A54204D0AB00F35898470135F8E770BD23
:40244000BC2A0000BC2A0000BC2A0000C42A0000002310B59A4203D0CC5CC4540133F9E710BD03008218934202D019700133FAE77047000000000000FE1300001014000036
:40248000221400003414000046140000581400006A1400007C1400008E140000A0140000B21400003C1500004E15000060150000721500008415000096150000A8150000FD
:4024C000BA150000CC150000DE150000F015000053746172745F55705F5553425F55415254200D0A0000000052656769737465722030205772697474656E20746F200D0A0B
:402500000000000052656769737465722031205772697474656E20746F200D0A0000000052656769737465722032205772697474656E20746F200D0A000000005265676959
:40254000737465722033205772697474656E20746F200D0A0000000052656769737465722034205772697474656E20746F200D0A0000000052656769737465722035205712
:4025800072697474656E20746F200D0A0000000052656769737465722036205772697474656E20746F200D0A0000000052656769737465722037205772697474656E20742C
:4025C0006F200D0A0000000052656769737465722038205772697474656E20746F200D0A0000000052656769737465722039205772697474656E20746F200D0A000000006C
:402600005265676973746572203130205772697474656E20746F200D0A0000005265676973746572203020526561642066726F6D200D0A0052656769737465722031205249
:402640006561642066726F6D200D0A005265676973746572203220526561642066726F6D200D0A005265676973746572203320526561642066726F6D200D0A005265676921
:4026800073746572203420526561642066726F6D200D0A005265676973746572203520526561642066726F6D200D0A005265676973746572203620526561642066726F6D15
:4026C000200D0A005265676973746572203720526561642066726F6D200D0A005265676973746572203820526561642066726F6D200D0A005265676973746572203920520C
:402700006561642066726F6D200D0A00526567697374657220313020526561642066726F6D200D0A000000000E1700000E1700001217000012170000121700001217000009
:40274000121700001217000012170000121700000E1700000E17000012170000121700001217000012170000121700002617000050534F432034323030204D4F444255535C
:4027800020534C415645000000300F40000280320F40800100400F400004000000320F40002A000080000000810F8272833802200410052C06AC07430C0C0D800E710F13D5
:4027C000130C1603170818DC19711A221B061C091ED02171230E241428102A4030E031C0321F3330350F3720398A3A023B203F044003470449FF4A074BFF4C404D204EF062
:402800004F055008580459045A045F01604061A862406320821584E088E089138C808D108E40902092409440951396A0980399029A149B059C139E04A208A413A60CA80A63
:40284000AA14AB08AD01AF06B010B110B2E0B303B40FB70CBA20BE01BF40C024C101C50CC6BEC80DC9FFCAFFCBFFCEF0CF44D00CD401D804D904DA04DB04DF01E6C0EA40CA
:40288000EB0200400240031004280660070509200A120D020E200F06102814101522184019011A301B011D101E601F0C2006213522012604276229012A022E802F0430184F
:4028C000311032013310372438843D803E204104464247104F0450485240546057805D215E405F086520670479017B80C0FDC2F7C476CA31CC67CE3AD0B2D6F086028E0196
:40290000920299019E04A601B001B101B402B604BA08BE11BF01D418D604D804D904DB04DF0100400140032005100602075009010B010E180F4110201624170118041980E3
:402940001A101B091C401D301E211F10210124102501268027092DA02E022F1832103401369037103C803E283F014401452047424C204D6057205A015C10600461026302C0
:402980006C146D80762E810285019220934194289B429F08A040A204A540A902AA80AB01AC01AF21B348C0F5C2F9C474CAF0CCB4CEF0D0B0D230D621D80D070457096C20DE
:4029C000C080D440D620DA8080208708A420A708AB04AF01E280E640E880EE101001110103000F406A300F403D310F4013320F404C330F4007400F400A410F4002600F40E6
:402A00000001F3000F08F000F3180C0008800000C3000006FF00000082390042413900441C10E3000C670018047F0000000000011C402C200F80C01F000228800000001487
:402A400021060500040CE00009FFFFFF62A0F0410C00000000000211040404040000000100000000000040020010301000101012000000000000000000000000000000000D
:402A8000030405060708090A0B0C0E0F101112131415161718191B1C1D1E1F2021222325262728292A2B2E2F3031323334354300F8B5C046F8BC08BC9E46704755130000B5
:402AC000651C0000F8B5C046F8BC08BC9E4670472D130000E82A0000C80000208800000010010000000000000000000002000000010000000000E02EC05D00001800000076
:402B000000366E01040404000000000000000000000000000000000000000000000000000000000000000000AE2A000000000000000000000000000000000000000000000C
:402B400000000000000000000000000000000000000000000000000000000000000000000000000000000000E800002000000000000000000000000000000000000000004D
:402B80000000000000000000000000000000000000000000000000000000000000000000000000000000000000000000000000000000000000000000000000000000000015
:402BC00000000000000000000000000000000000000000000000000000000000000000000000000000000000000000000000000000000000000000000000000000000000D5
:402C00000000000000000000000000000000000000000000000000000000000000000000000000000000000000000000000000000000000000000000000000000000000094
:402C40000000000000000000000000000000000000000000000000000000000000000000000000000000000000000000000000000000000000000000000000000000000054
:407FC000971111000021000000801A00000000000000010000000000000000000000000000000000000000000000000000000000000000000000000000000000000000000C
:0200000490303A
:02000000846E0C
:0200000490402A
:20000000FFFFFFFF00000000000000000000000000000000000000000000000000000000E4
:0200000490501A
:0C000000000204C81193110004D5960101
:0200000490600A
:0100000001FE
:00000001FF